:020000040000FA
:02000000002BD3
:08000800F000030EF100831269
:1000100003130C1C22280C10FD308F008F308E0033
:10002000E423BD0AC8303D02031C2228BD0101089B
:10003000AF008101BE0A3E1C2228AA0A2A08033A00
:0E0040000319AA01710E8300F00E700E090064
:100400000F3982073F3406345B344F3466346D3421
:100410007D3407347F346F3439345E3471340034C2
:0404200040347934B7
:10060000831603138E309F0083160313880189011C
:10061000831603138501051405168512831603132B
:10062000071087108717071383160313F03086000F
:10063000831603131930990024309800831603138E
:1006400028308100831603130C1483120313903097
:100650009800831203133130900083160313073080
:100660009C008312031381309F00831203138B17A6
:100670000B1783120313880189018501A501193025
:10068000AD00AE01B201AA01BD01AF018101BA0105
:100690003230B900B601B70112244E24B208031D4E
:1006A000642BB90B572B3230B90012244E242A0880
:1006B000003A0319C0232A08013A0319C9232A085A
:1006C000023A0319D2236C2B2108A6002208A700A6
:1006D0002308A8000B30A9006224B108031DEF24F1
:1006E000B101742353254E2B831203138C1E080073
:1006F000831203131A08BB00831203133B08013A49
:100700000319A12B3B08023A0319A32B3B08033A18
:100710000319A52B3B08043A0319A72B3B08053AFC
:100720000319A92B3B08063A0319A32B3B08C03930
:10073000803A0319B62B3B08C039C03A0319BB2BCA
:1007400008002E08AB2B2D08AB2B2C08AB2B2B084D
:10075000AB2B2F08AB2BBC00831203139900831221
:1007600003130C1EB12B8312031308003B083F39FF
:10077000AE004E2408003B083F39AD004E2408006F
:10078000A6012B08A000DA232C08A8000A30A90033
:100790000800A6012D08A000DA232E08A8000B30BF
:1007A000A9000800A6012F08A000DA23A8010C3038
:1007B000A90008000A302002031CE12BA000A60AB1
:1007C000DA2B2008A70008008901851202308A0070
:1007D00025080339BF003F080319F72B3F08013AEA
:1007E0000319FD2B3F08023A0319042C0A2C260892
:1007F00000228800013089000F2C27080022803851
:100800008800023089000F2C28080022880004305C
:1008100089000F2C29080022880085160F2CA50AB4
:100820008A010800B601B7012030B5008312031316
:100830001F151F19192C831603131E088312031387
:10084000B6070318B70AB50B162C0530B80003100D
:10085000B70CB60CB80B272C36083A0203193D2CFE
:100860003A08013E360603193D2C3A08FF3E36068B
:1008700003193D2C3608BA003F2C3A08B60036085A
:1008800083120313AB000130AB020310AB0C03184F
:100890004B2CAC0108000530AC0008008312031398
:1008A0002D082B02031D592C2E082C0203185C2C3A
:1008B0005F2C03185C2C5F2C0710871408000714AA
:1008C00087100800B10183120313FE30860047250C
:1008D000061E922C861E972C061F9C2C861FA12C70
:1008E000FD3086004725061EA62C861EAB2C061F53
:1008F000B02C861FB52CFB3086004725061EBA2C6F
:10090000861EBF2C061FC42C861FC92CF7308600FC
:100910004725061ECE2C861ED32C061FD82C861FDC
:10092000DD2C08004A25061A08000130E22C4A2571
:10093000861A08000230E22C4A25061B0800033004
:10094000E22C4A25861B08000A30E22C4A25061AAA
:1009500008000430E22C4A25861A08000530E22CF3
:100960004A25061B08000630E22C4A25861B080093
:100970000B30E22C4A25061A08000730E22C4A25E3
:10098000861A08000830E22C4A25061B08000930A8
:10099000E22C4A25861B08000C30E22C4A25061A58
:1009A00008000E30E22C4A25861A08000030E22C9E
:1009B0004A25061B08000F30E22C4A25861B08003A
:1009C0000D30E22CB0000130B100F03086000000A4
:1009D0000608F039F03A031DE52C4A2508003008D6
:1009E0000A3A03190F2DB2080319080030080F3A0C
:1009F0000319162D30080E3A0319352D3008093C1D
:100A0000031C08002408003A0319382D2408013A71
:100A100003193D2D2408033A0319422D0800013023
:100A2000B200A401A101A201A3010800BF01A10815
:100A30000319202D2108B5000A30BF07B50B1C2D66
:100A40002208BF070A303F02031C302D3F08323C0A
:100A5000031C302D3F08AD002308AE00B201322D3B
:100A6000B2010800AA014E2408000330A4000800C7
:100A70003008A1000130A40008003008A2000230B4
:100A8000A40008003008A3000430A40008000530CA
:100A9000B3004C2D2830B300C830B400B40B4E2D39
:100AA000B30B4C2D08000A30B3003230B400B40B45
:080AB000572DB30B552D080072
:02400E00723FFF
:00000001FF
