:020000040000FA
:020000005A287C
:040002000034003492
:080008000528C200030EC3002D
:10001000831203138C1E18289818142818191428F2
:100020001A08A8001D20182818121A0818161828CF
:10003000430E8300C20E420E09002808C039C03C9E
:1000400003193F282808013A031944282808023ACE
:10005000031946282808033A031948282808043AAF
:1000600003194A282808053A03194C282808063A93
:1000700003194E282808083A0319502808002808B0
:100080003F39A400271408000030522824085228C1
:100090002E0852282D085228300852282F0852289E
:1000A00022085228A9008316981C54288312290874
:1000B000990008008316FF308500860188018715A6
:1000C00007168717071304309F0019309900243052
:1000D00098008C1683129030980081309F000B1787
:1000E0008B1786018801BA01B601B701A701A501E6
:1000F000FF30C100532232224A221E214E226921A2
:10010000BE2100300C21A000F8202108A2003230CE
:100110002202031CA52801300C21A000F820210890
:10012000643CA30023082502A600A61F9928A6095F
:10013000A60A03302602031CA02827102308A500C6
:100140002718A7282308A400A7286430A400692141
:10015000B020BE20C10B8128BE213230C1008128D1
:10016000B901B8012408AA00AA08031908000A3036
:10017000B8070318B90AAA0BB728080039083702CC
:10018000031DC92838083602031908000318D628A9
:10019000CC280318D628CC28B60A0319B70ABA0AFD
:1001A00004303A020319BA01E42008000130B60213
:1001B000031CB703BA03FF303A020319E028E4280E
:1001C0000330BA00E42008003A08E9208800EE2055
:1001D0000800820701340234043408340A30C000B5
:1001E0006430BF000000BF0BF228C00BF0280800ED
:1001F0002008AA00AB01AC01AA080319092965303F
:10020000AB070318AC0AAA0BFF282C08643CA1001A
:1002100008006430A10008000739BB009F111F12BD
:100220009F123B189F15BB181F163B199F161F14D2
:100230004E221F151F191A291E080800831687153C
:1002400007160930930083122830940008008316A3
:1002500011148312831611182A2983120800831699
:10026000111583128316111932298312080083167F
:1002700091148312831691183A298312080093006F
:100280008C1D40298C118316111B0311111F03159E
:1002900083120800831691158312831691194D2934
:1002A00083128C1D4D298C111308B300080083168E
:1002B0009112111683128316111A5B2983120800FA
:1002C00083169116111683128316111A642983124C
:1002D00008006D214E22992108002721EE303F2190
:1002E000F4303F212E303F212F214E222721EE30A6
:1002F0003F21F6303F213721EF303F214A2133089B
:10030000B10057214A213308B20060212F21310862
:10031000AD00AD0CAD0CAD0CAD132D13AD1232080C
:100320000F39AE000A302E02031809300318AE0050
:1003300008002721EE303F21F4303F2134303F21A7
:100340002F214E224E222721EE303F21F6303F2131
:100350003721EF303F214A213308B10057214A218C
:100360003308B20060212F213108AF000310AF0D18
:10037000AF0DE130AF070030B00008008030102230
:10038000543021223A3021222D08A100F2212E30B2
:1003900021222E08303E21222030212250302122DD
:1003A0003A3021222F08A100F22133302122C0301F
:1003B0001022783021226C3021223A30212222086A
:1003C000A100F22125302122203021227830212263
:1003D000633021223A3021222408A100F221253065
:1003E00021220800643021020318092ABD012108D6
:1003F000BC00303021220A303C02031C022ABC001F
:10040000BD0AFB293D08303E21223C08303E212216
:1004100008003130212230302122303021220800E2
:10042000BB00F03986008610000006154E2206112A
:100430003B0EF03986008610000006154E2206118C
:100440000800BB00F03986008614000006154E2215
:1004500006113B0EF03986008614000006154E2268
:100460000611080014305322303044224E2230301E
:1004700044224E22203044224E22283010220C30BA
:100480001022063010220800F03986000615000000
:100490000611080001301022532208003230BF003C
:1004A000BF0B502A0800FF30C000FF30BF00BF0B59
:0804B000572AC00B552A080071
:02400E00323F3F
:00000001FF
